{"address":"0x706d20dc96984fe72e3dF65E884C0c4BC3A75eB1","bytecode":"0x608060405234801561001057600080fd5b5033600073ffffffffffffffffffffffffffffffffffffffff168173ffffffffffffffffffffffffffffffffffffffff16036100845760006040517f1e4fbdf700000000000000000000000000000000000000000000000000000000815260040161007b919061019e565b60405180910390fd5b6100938161009960201b60201c565b506101b9565b60008060009054906101000a900473ffffffffffffffffffffffffffffffffffffffff169050816000806101000a81548173ffffffffffffffffffffffffffffffffffffffff021916908373ffffffffffffffffffffffffffffffffffffffff1602179055508173ffffffffffffffffffffffffffffffffffffffff168173ffffffffffffffffffffffffffffffffffffffff167f8be0079c531659141344cd1fd0a4f28419497f9722a3daafe3b4186f6b6457e060405160405180910390a35050565b600073ffffffffffffffffffffffffffffffffffffffff82169050919050565b60006101888261015d565b9050919050565b6101988161017d565b82525050565b60006020820190506101b3600083018461018f565b92915050565b610c48806101c86000396000f3fe608060405234801561001057600080fd5b506004361061007d5760003560e01c8063cc1eb6611161005b578063cc1eb661146100da578063d38d7f3f146100f6578063f2fde38b14610128578063f775e1b9146101445761007d565b8063715018a61461008257806374164f521461008c5780638da5cb5b146100bc575b600080fd5b61008a610160565b005b6100a660048036038101906100a191906107d1565b610174565b6040516100b39190610820565b60405180910390f35b6100c4610199565b6040516100d1919061084a565b60405180910390f35b6100f460048036038101906100ef9190610865565b6101c2565b005b610110600480360381019061010b9190610865565b610259565b60405161011f93929190610892565b60405180910390f35b610142600480360381019061013d91906108c9565b6102e3565b005b61015e600480360381019061015991906109b1565b610369565b005b6101686105e0565b6101726000610667565b565b6002602052816000526040600020602052806000526040600020600091509150505481565b60008060009054906101000a900473ffffffffffffffffffffffffffffffffffffffff16905090565b806000600160008481526020019081526020016000209050338160000160006101000a81548173ffffffffffffffffffffffffffffffffffffffff021916908373ffffffffffffffffffffffffffffffffffffffff1602179055507f2d07a5fc4d30b07d57b58cbdc692f31e12e0ca95e98193bb47ac67d942fb3c3a8360405161024c9190610820565b60405180910390a1505050565b60016020528060005260406000206000915090508060000160009054906101000a900473ffffffffffffffffffffffffffffffffffffffff16908060010160009054906101000a900473ffffffffffffffffffffffffffffffffffffffff16908060020160009054906101000a900473ffffffffffffffffffffffffffffffffffffffff16905083565b6102eb6105e0565b600073ffffffffffffffffffffffffffffffffffffffff168173ffffffffffffffffffffffffffffffffffffffff160361035d5760006040517f1e4fbdf7000000000000000000000000000000000000000000000000000000008152600401610354919061084a565b60405180910390fd5b61036681610667565b50565b8460006001600088815260200190815260200160002090503373ffffffffffffffffffffffffffffffffffffffff168160000160009054906101000a900473ffffffffffffffffffffffffffffffffffffffff1673ffffffffffffffffffffffffffffffffffffffff161461040a576040517fea8e4eb500000000000000000000000000000000000000000000000000000000815260040160405180910390fd5b60005b868690508110156105d657600087878381811061042d5761042c610a46565b5b905060200201602081019061044291906108c9565b9050600086868481811061045957610458610a46565b5b905060200281019061046b9190610a84565b8080601f016020809104026020016040519081016040528093929190818152602001838380828437600081840152601f19601f820116905080830192505050505050509050600082905060008173ffffffffffffffffffffffffffffffffffffffff1663201db4b5846040518263ffffffff1660e01b81526004016104f09190610b77565b6020604051808303816000875af115801561050f573d6000803e3d6000fd5b505050506040513d601f19601f820116820180604052508101906105339190610bae565b905080600260008e815260200190815260200160002060008673ffffffffffffffffffffffffffffffffffffffff1673ffffffffffffffffffffffffffffffffffffffff168152602001908152602001600020819055507f5e7b6540a64673261f4883d329f583df0632883c497ee1cd2dbb284d255bbdbe8c85836040516105bd93929190610bdb565b60405180910390a150505050808060010191505061040d565b5050505050505050565b6105e861072b565b73ffffffffffffffffffffffffffffffffffffffff16610606610199565b73ffffffffffffffffffffffffffffffffffffffff16146106655761062961072b565b6040517f118cdaa700000000000000000000000000000000000000000000000000000000815260040161065c919061084a565b60405180910390fd5b565b60008060009054906101000a900473ffffffffffffffffffffffffffffffffffffffff169050816000806101000a81548173ffffffffffffffffffffffffffffffffffffffff021916908373ffffffffffffffffffffffffffffffffffffffff1602179055508173ffffffffffffffffffffffffffffffffffffffff168173ffffffffffffffffffffffffffffffffffffffff167f8be0079c531659141344cd1fd0a4f28419497f9722a3daafe3b4186f6b6457e060405160405180910390a35050565b600033905090565b600080fd5b600080fd5b6000819050919050565b6107508161073d565b811461075b57600080fd5b50565b60008135905061076d81610747565b92915050565b600073ffffffffffffffffffffffffffffffffffffffff82169050919050565b600061079e82610773565b9050919050565b6107ae81610793565b81146107b957600080fd5b50565b6000813590506107cb816107a5565b92915050565b600080604083850312156107e8576107e7610733565b5b60006107f68582860161075e565b9250506020610807858286016107bc565b9150509250929050565b61081a8161073d565b82525050565b60006020820190506108356000830184610811565b92915050565b61084481610793565b82525050565b600060208201905061085f600083018461083b565b92915050565b60006020828403121561087b5761087a610733565b5b60006108898482850161075e565b91505092915050565b60006060820190506108a7600083018661083b565b6108b4602083018561083b565b6108c1604083018461083b565b949350505050565b6000602082840312156108df576108de610733565b5b60006108ed848285016107bc565b91505092915050565b600080fd5b600080fd5b600080fd5b60008083601f84011261091b5761091a6108f6565b5b8235905067ffffffffffffffff811115610938576109376108fb565b5b60208301915083602082028301111561095457610953610900565b5b9250929050565b60008083601f840112610971576109706108f6565b5b8235905067ffffffffffffffff81111561098e5761098d6108fb565b5b6020830191508360208202830111156109aa576109a9610900565b5b9250929050565b6000806000806000606086880312156109cd576109cc610733565b5b60006109db8882890161075e565b955050602086013567ffffffffffffffff8111156109fc576109fb610738565b5b610a0888828901610905565b9450945050604086013567ffffffffffffffff811115610a2b57610a2a610738565b5b610a378882890161095b565b92509250509295509295909350565b7f4e487b7100000000000000000000000000000000000000000000000000000000600052603260045260246000fd5b600080fd5b600080fd5b600080fd5b60008083356001602003843603038112610aa157610aa0610a75565b5b80840192508235915067ffffffffffffffff821115610ac357610ac2610a7a565b5b602083019250600182023603831315610adf57610ade610a7f565b5b509250929050565b600081519050919050565b600082825260208201905092915050565b60005b83811015610b21578082015181840152602081019050610b06565b60008484015250505050565b6000601f19601f8301169050919050565b6000610b4982610ae7565b610b538185610af2565b9350610b63818560208601610b03565b610b6c81610b2d565b840191505092915050565b60006020820190508181036000830152610b918184610b3e565b905092915050565b600081519050610ba881610747565b92915050565b600060208284031215610bc457610bc3610733565b5b6000610bd284828501610b99565b91505092915050565b6000606082019050610bf06000830186610811565b610bfd602083018561083b565b610c0a6040830184610811565b94935050505056fea26469706673582212209e4642236f22365974a8ff378b9475ae8f30cf64b12a7ab964d9889d3cf6a07864736f6c63430008180033","abi":[{"inputs":[],"stateMutability":"nonpayable","type":"constructor"},{"inputs":[],"name":"NotAuthorized","type":"error"},{"inputs":[{"internalType":"address","name":"owner","type":"address"}],"name":"OwnableInvalidOwner","type":"error"},{"inputs":[{"internalType":"address","name":"account","type":"address"}],"name":"OwnableUnauthorizedAccount","type":"error"},{"anonymous":false,"inputs":[{"indexed":false,"internalType":"uint256","name":"proposal","type":"uint256"}],"name":"NewAcceleration","type":"event"},{"anonymous":false,"inputs":[{"indexed":false,"internalType":"uint256","name":"proposal","type":"uint256"},{"indexed":false,"internalType":"address","name":"workflow","type":"address"},{"indexed":false,"internalType":"uint256","name":"workflowInstance","type":"uint256"}],"name":"NewWorkflowForAcceleration","type":"event"},{"anonymous":false,"inputs":[{"indexed":true,"internalType":"address","name":"previousOwner","type":"address"},{"indexed":true,"internalType":"address","name":"newOwner","type":"address"}],"name":"OwnershipTransferred","type":"event"},{"inputs":[{"internalType":"uint256","name":"","type":"uint256"},{"internalType":"address","name":"","type":"address"}],"name":"accelerationWorkflows","outputs":[{"internalType":"uint256","name":"","type":"uint256"}],"stateMutability":"view","type":"function"},{"inputs":[{"internalType":"uint256","name":"","type":"uint256"}],"name":"accelerations","outputs":[{"internalType":"address","name":"owner","type":"address"},{"internalType":"address","name":"seedRaise","type":"address"},{"internalType":"address","name":"publicRaise","type":"address"}],"stateMutability":"view","type":"function"},{"inputs":[{"internalType":"uint256","name":"_proposalId","type":"uint256"}],"name":"addAcceleration","outputs":[],"stateMutability":"nonpayable","type":"function"},{"inputs":[{"internalType":"uint256","name":"_proposalId","type":"uint256"},{"internalType":"address[]","name":"_workflows","type":"address[]"},{"internalType":"string[]","name":"_names","type":"string[]"}],"name":"addWorkflowsToAcceleration","outputs":[],"stateMutability":"nonpayable","type":"function"},{"inputs":[],"name":"owner","outputs":[{"internalType":"address","name":"","type":"address"}],"stateMutability":"view","type":"function"},{"inputs":[],"name":"renounceOwnership","outputs":[],"stateMutability":"nonpayable","type":"function"},{"inputs":[{"internalType":"address","name":"newOwner","type":"address"}],"name":"transferOwnership","outputs":[],"stateMutability":"nonpayable","type":"function"}]}